:020000040800F2
:1000000000000820096C0008354600083D4600083D
:10001000454600084D46000855460008000000000F
:100020000000000000000000000000005D46000825
:100030006B4600080000000079460008656F000864
:10004000596C0008596C0008596C0008596C00087C
:10005000596C0008596C0008596C0008596C00086C
:10006000596C0008596C0008596C0008596C00085C
:10007000C1310008596C0008596C0008596C00081F
:10008000596C0008596C0008596C0008596C00083C
:10009000596C0008596C0008596C0008596C00082C
:1000A000596C0008596C0008596C0008596C00081C
:1000B000596C0008596C0008596C0008596C00080C
:1000C000596C0008596C0008596C0008596C0008FC
:1000D000596C0008596C0008596C0008AD310008D3
:1000E000596C0008596C0008596C0008596C0008DC
:1000F000596C0008596C0008596C0008596C0008CC
:10010000596C0008596C000889460008596C0008B1
:10011000596C0008596C0008596C0008596C0008AB
:10012000596C0008596C0008596C0008596C00089B
:10013000596C0008596C0008596C0008596C00088B
:10014000596C0008596C0008596C0008596C00087B
:10015000596C0008596C0008596C0008596C00086B
:10016000596C0008596C0008596C0008596C00085B
:10017000596C0008596C0008596C00080000000018
:10018000596C0008596C0008596C0008596C00083B
:10019000596C0008596C0008596C0008596C00082B
:1001A000596C0008596C0008596C0008596C00081B
:1001B000596C0008596C0008596C0008596C00080B
:1001C000596C0008596C000800000000596C0008C8
:1001D000596C0008596C0008596C0008596C0008EB
:1001E000596C0008596C0008596C0008596C0008DB
:0801F000596C0008596C00086D
:1001F8000348044B834202D0034B03B118477047AE
:10020800B8000020B8000020000000000548064B98
:100218001B1AD90F01EBA301491002D0034B03B1FC
:1002280018477047B8000020B80000200000000000
:1002380010B5064C237843B9FFF7DAFF044B13B126
:100248000448AFF300800123237010BDB8000020DC
:1002580000000000288A000808B5054B1BB10549B5
:100268000548AFF30080BDE80840FFF7CFBF00BFE7
:1002780000000000BC000020288A000880B400AFFD
:10028800074B1B681B68002B04D0054B1B68083301
:10029800034A136000BFBD465DF8047B704700BF8A
:1002A800D400002080B586B000AFF8600B467A60B5
:1002B800FB7200237B61214B1B68002B36D1F97A36
:1002C8001F4B7A68F86800F029FF0346002B03D01B
:1002D80001237B6100232DE0194B1B685B68174ADB
:1002E8001360174B1B681B68164A13601EE0134BFC
:1002F8001B68144A12681146184600F08BFDFFF778
:10030800BDFF0F4B1B681B68002B05D101237B61C8
:100318000A4B00221A6009E0094B1B685B68074A10
:100328001360074B1B681B68064A13607B69002B28
:10033800DDD0002318461837BD4680BDE8000020F0
:10034800D4000020EC00002080B588B002AFF8602F
:100358007B600B46FB721346BB7201237B61B97A43
:100368003B6A0193FB7A0093144B7A68F86801F0B2
:1003780069F80346002B19D000231BE00F4B1B68BC
:100388005A680E4B1B681B681946104600F0F4FCAF
:100398000346002B01D001230CE0FFF76FFF074B4A
:1003A8001B681B68002B01D100237B617B69002B34
:1003B800E4D1002318461837BD4680BDD40000207C
:1003C80080B588B002AFF8607B600B46FB721346BD
:1003D800BB7201237B6100233B61B97A3B690193BE
:1003E800FB7A0093144B7A68F86800F0A5FF03467F
:1003F800002B19D000231BE00F4B1B685A680E4BCB
:100408001B681B681946104600F0B6FC0346002B13
:1004180001D001230CE0FFF731FF074B1B681B6875
:10042800002B01D100237B617B69002BE4D10023E1
:1004380018461837BD4680BDD400002080B584B06A
:1004480000AF03460A46FB711346BB7106F0FAFC7F
:100458000346002B01D0012326E0FB79002B19D09D
:100468000023FB7307F10F030121184600F084FCF9
:100478000346002B01D0012316E0FB79FB7307F13B
:100488000F030121184600F077FC0346002B01D02A
:10049800012309E0BB79184600F012FD0346002B42
:1004A80001D0012300E0002318461037BD4680BD67
:1004B80080B485B000AF03460A46FB711346BB7192
:1004C80097F90730062B00F2E38001A252F823F0D7
:1004D800F504000823050008890500082F06000810
:1004E800C30500084306000893060008BB790D2BD6
:1004F8000FDC0B2B07DA092B02DC002B03DA08E0F0
:100508000A2B03D005E00123FB7305E00123FB73ED
:1005180002E0FF23FB7300BFBDE0BB790D2B2BD896
:1005280001A252F823F000BF69050008750500080C
:10053800750500087B050008750500087B0500089F
:100548007B0500086F050008750500087B05000895
:10055800810500087B050008750500086905000885
:100568000523FB730BE00623FB7308E00423FB73EE
:1005780005E00223FB7302E0FF23FB7300BF8AE060
:10058800BB79033B082B8CBF01220022D2B2002A80
:100598000FD140F24D1222FA03F303F00103002BAE
:1005A80014BF01230023DBB2002B02D00423FB730A
:1005B80002E0FF23FB7300BF6DE0BB79013B0C2B0E
:1005C8008CBF01220022D2B2002A28D1012202FACD
:1005D80003F341F6BB421A40002A14BF012200224D
:1005E800D2B2002A12D103F48072002A14BF012269
:1005F8000022D2B2002A0FD103F00403002B14BF4B
:1006080001230023DBB2002B03D108E00523FB7391
:1006180008E00323FB7305E00723FB7302E0FF23D5
:10062800FB7300BF37E0BB79032B02D10523FB73B3
:1006380002E0FF23FB7300BF2DE0BB790D2B8CBFBD
:1006480001220022D2B2002A1BD101229A4043F291
:10065800FE031340002B14BF01230023DBB2002B41
:100668000CD140F601131340002B14BF01230023C3
:10067800DBB2002B05D00723FB7305E00623FB73D1
:1006880002E0FF23FB7300BF05E00723FB7302E0D2
:10069800FF23FB7300BF97F90F3018461437BD4688
:1006A8005DF8047B704700BF80B582B000AF1D4B7A
:1006B80093F90030002B31D1FB1D0121184600F0C1
:1006C800A9FBFA79174B5A70164B5B780A2B0DD198
:1006D800154B01221A6001210820FFF7AFFE0346DF
:1006E800002B1AD0114B00221A6017E00D4B93F91A
:1006F80000300C4A527811461846FFF7D9FE0346D7
:100708001A46084B1A70074B93F90030B3F1FF3FB4
:1007180004D1064B00221A6000E000BF0837BD462E
:1007280080BD00BFDC000020D800002000000020B1
:1007380080B586B002AFFFF7B7FFAA4B93F9003038
:10074800012B1AD10421A84800F064FBA54B93F9AA
:100758000030A44A527811461846FFF7A9FE03460E
:100768001A46A04B1A709F4B93F90030B3F1FF3F24
:1007780003D19E4B00221A606AE29A4B93F900302B
:10078800022B1AD104219A4800F044FB954B93F9A7
:100798000030944A527811461846FFF789FE0346FE
:1007A8001A46904B1A708F4B93F90030B3F1FF3F04
:1007B80003D18E4B00221A604AE28A4B93F900302B
:1007C800042B37D1874B9B68864A5178854A5268F3
:1007D8001846FFF767FD0346FB73FB7B012B03D12C
:1007E800824B00221A6033E2FB7B002B0BD00121E5
:1007F8000120FFF723FE0346002B00F00E827B4BFF
:1008080000221A6024E2774B93F90030754A527837
:1008180011461846FFF74CFE03461A46714B1A70EC
:10082800704B93F90030B3F1FF3F03D16F4B0022B7
:100838001A600DE26B4B93F90030032B37D1694BEB
:100848009868684B5A78674B5B680121FFF7B8FDD9
:100858000346BB73BB7B012B03D1644B00221A6098
:10086800F6E1BB7B002B0BD001210220FFF7E6FD50
:100878000346002B00F0D3815C4B00221A60E7E1AD
:10088800584B93F90030574A527811461846FFF7EB
:100898000FFE03461A46534B1A70524B93F9003019
:1008A800B3F1FF3F03D1514B00221A60D0E14D4B09
:1008B80093F90030052B40F054814A4B5B780D2B9F
:1008C80000F21D8101A252F823F000BF0D090008B3
:1008D8006F090008C3090008B10A0008FD090008EB
:1008E800270A0008550A00080F0B000845090008E8
:1008F800070B0008070B0008830A0008DF0A000836
:100908009909000801F021FC0346002B03D0374B5E
:1009180000221A609CE100F068FB0346002B03D01C
:10092800324B00221A6093E100F0CEFE0346002B02
:1009380000F0EB802D4B00221A6089E1294B9B685F
:10094800184600F019FB0346002B00F0E080012157
:100958000320FFF773FD0346002B00F06281234B51
:1009680000221A6074E11F4B9B68184600F06CFB6C
:100978000346002B00F0CD8001210420FFF75EFD27
:100988000346002B00F04F81184B00221A605FE1EC
:10099800144B9B68184600F081FB0346002B00F0BF
:1009A800BA8001210420FFF749FD0346002B00F01F
:1009B8003C810E4B00221A604AE10A4B9B6818469C
:1009C80000F07EFB0346002B00F0A78001210520E4
:1009D800FFF734FD0346002B00F02981034B00226A
:1009E8001A6035E1DC000020E4000020000000204F
:1009F800E0000020984B9B68184600F055FE03461F
:100A0800002B00F08C8001210820FFF717FD03461A
:100A1800002B00F00E81914B00221A6018E18E4BDA
:100A28009B688D4A52681146184600F055FE0346E9
:100A3800002B76D001210920FFF700FD0346002B8B
:100A480000F0F980854B00221A6001E1824B9B6817
:100A5800814A52681146184600F04FFE0346002BA3
:100A680061D001210A20FFF7E9FC0346002B00F0C2
:100A7800E4807A4B00221A60EAE0774B9B68764A5A
:100A880052681146184600F0CBFC0346002B4CD0A8
:100A980001210720FFF7D2FC0346002B00F0CF808E
:100AA8006E4B00221A60D3E06B4B9B686A4A52680F
:100AB8001146184600F05EFC0346002B37D0012192
:100AC8000620FFF7BBFC0346002B00F0BA80634BFF
:100AD80000221A60BCE0604B9B68184600F00CFBD3
:100AE8000346002B25D001210B20FFF7A7FC034666
:100AF800002B00F0A880594B00221A60A8E0574B41
:100B080000221A60A4E000BF14E000BF12E000BF9A
:100B180010E000BF0EE000BF0CE000BF0AE000BF1D
:100B280008E000BF06E000BF04E000BF02E000BF2D
:100B380000E000BF484B93F90030474A527811460D
:100B48001846FFF7B5FC03461A46434B1A70424B4A
:100B580093F90030B3F1FF3F03D1404B00221A60F4
:100B680076E03D4B93F90030062B3BD10023BB6068
:100B7800394B9868384B5A78374B5968BB6800939B
:100B88000B460221FFF7E0FB0346FB71FB79012BC3
:100B980003D1324B00221A605AE0FB79002B0AD0AD
:100BA80001210220FFF74AFC0346002B4DD02B4BB6
:100BB80000221A604CE0284B93F90030264A5278FC
:100BC80011461846FFF774FC03461A46224B1A7062
:100BD800214B93F90030B3F1FF3F03D11F4B0022A3
:100BE8001A6035E01C4B93F90030072B2FD11A4BB4
:100BF8005B78092B2BD00123BB71BB7919460020E8
:100C0800FFF71CFC0346002B03D0144B00221A608C
:100C18001EE0114B00221A7019E000BF18E000BF57
:100C280016E000BF14E000BF12E000BF10E000BFF4
:100C38000EE000BF0CE000BF0AE000BF08E000BF04
:100C480006E000BF04E000BF02E000BF00E000BF14
:100C58001037BD4680BD00BFDC000020000000202A
:100C680080B582B000AF0023FB71FFF761FD0B4B2D
:100C78001B68002B09D00A4B1B68002B02D0FF23EE
:100C8800FB7104E00023FB7101E00123FB7197F97C
:100C9800073018460837BD4680BD00BF0000002059
:100CA800D800002080B582B000AF4621104800F07F
:100CB800E3FD0346002B01D1012314E00C4B1B6814
:100CC800184600F0EBFD78600A4A7B6813607B6881
:100CD8000133094A1360094B00221A80054B1B682F
:100CE80000221A70002318460837BD4680BD00BF91
:100CF800F0000020FC000020F4000020F800002094
:100D080080B500AF00F0A8FD0346002B14BF0123F7
:100D18000023DBB21A4601239A4201D0012302E0E4
:100D2800FFF7C0FF0346184680BD000080B500AF3E
:100D38000F4B1A680F4B1B8801339BB2194610469C
:100D480000F0BAFD0346002B14BF01230023DBB2D9
:100D58001A4600239A4201D1032307E0FFF7A2FFB6
:100D68000346002B01D0032300E00023184680BD72
:100D7800F0000020F800002080B586B000AF786051
:100D880039600023FB757B683B6137E01F4B1B888C
:100D9800402B08D1FFF7CAFF0346FB75FB7D002BEC
:100DA80001D0FB7D2EE0194B1B88C3F14003FB816A
:100DB800FB893A689A4202D83B689BB200E0FB89FB
:100DC800BB60134B1B68BA683969184607F01AFEEE
:100DD8003A68BB68D31A3B60BB689AB20B4B1B8856
:100DE80013449AB2094B1A803A69BB6813443B61B1
:100DF800074B1A68BB681344054A13603B68002B0D
:100E0800C4D1FB7D18461837BD4680BDF8000020C8
:100E1800F400002080B588B000AF78603960002306
:100E2800FB760023FB617B687B613DE0224B1B88DE
:100E3800002B2ED0204B1B881A463B68934202D8C1
:100E48003B689BB201E01C4B1B887B82FB697A697B
:100E580013441A4A11687A8A184607F0D3FD164BCC
:100E68001A887B8AD31A9AB2134B1A80134B1A68C2
:100E78007B8A1344114A13607B8A3A68D31A3B6011
:100E88003B68002B01D1FB7E12E07B8AFA69134490
:100E9800FB610949094800F0A1FCF860FB68B3F15F
:100EA800FF3F01D1012303E03B68002BBED1FB7E4D
:100EB80018462037BD4680BD0001002004010020EF
:100EC80080B582B000AF0346FB71FB79002B04D0DC
:100ED8000A4B1B6802221A7003E0084B1B680122A8
:100EE8001A70FFF723FF0346032B01D1032300E009
:100EF800002318460837BD4680BD00BFFC0000200F
:100F080080B500AF00F0B0FC00BF80BD80B582B0F6
:100F180000AF786039603968786800F0FFFB0346F5
:100F28000122934201D0012315E0FFF7E9FE0346B1
:100F3800002B01D001230EE005F0FEFE0346002B36
:100F480001D0012307E001F083F90346002B01D00B
:100F5800012300E0002318460837BD4680BD80B550
:100F680000AFFFF7CDFF05F0F7FE01F081F900F0C3
:100F7800EFFB0023184680BD80B483B000AF7860D3
:100F88007B68002B01D0022300E0002318460C37B1
:100F9800BD465DF8047B704780B584B000AFF8604B
:100FA800B9607A6007F108030421184605F0FCFED1
:100FB8000346002B01D000BFFDE73B1D0421184666
:100FC80005F0F2FE0346002B01D000BFFDE7BB6829
:100FD8001946F86805F0E8FE0346002B01D000BF6B
:100FE800FDE700BF1037BD4680BD80B582B000AFB9
:100FF8000823FB71FB1D01211846FFF7BDFE0346C0
:10100800002B01D003231AE00123FB71FB1D0121F2
:101018001846FFF7B1FE0346002B01D003230EE06C
:101028000423FB71FB79FB71FB1D01211846FFF7B7
:10103800A3FE0346002B01D0032300E0002318463B
:101048000837BD4680BD000080B485B000AF786029
:101058000023FB730D4B4FF000021A600C4B4FF04E
:1010680000021A600B4B4FF000021A600A4B002274
:101078001A707B68002B01D00223FB73FB7B184698
:101088001437BD465DF8047B704700BF340100206B
:10109800380100203C0100204001002080B485B0C8
:1010A80000AF78600023FB737B68002B01D002231C
:1010B800FB73FB7B18461437BD465DF8047B70470D
:1010C80080B584B000AF78600023FB737B68002B89
:1010D80009D1012005F0CEFD064805F08DFF01205D
:1010E80005F0DAFD01E00223FB73FB7B184610379D
:1010F800BD4680BD3401002080B485B000AF786063
:101108000023FB737B68002B01D00223FB73FB7B5E
:1011180018461437BD465DF8047B704780B592B019
:1011280000AFF8607A603B600B46FB72002387F8DB
:1011380047303B6800221A60FB68002B05D0022369
:1011480087F8473097F84730D8E0FB7A032B03D06D
:10115800062B00F0C180CBE06A4B1B68002B40F0E7
:10116800B78000233B64684BFB63684A3B6C0421EF
:1011780042F833103B6C5A1C3A64644ADB0013444F
:10118800FA6B5A60624BBB63604A3B6C042142F8BD
:1011980033103B6C5A1C3A645C4ADB001344BA6B4C
:1011A8005A605C4B7B63594A3B6C042142F833100C
:1011B8003B6C5A1C3A64554ADB0013447A6B5A60FC
:1011C800554B3B63514A3B6C042142F833103B6C4E
:1011D8005A1C3A644D4ADB0013443A6B5A604F4B31
:1011E800FB624A4A3B6C042142F833103B6C5A1CA0
:1011F8003A64464ADB001344FA6A5A60484BBB62B9
:10120800424A3B6C042142F833103B6C5A1C3A6446
:101218003E4ADB001344BA6A5A60424B7B623B4A3F
:101228003B6C042142F833103B6C5A1C3A64374A31
:10123800DB0013447A6A5A603B4B3B62334A3B6C8F
:10124800042142F833103B6C5A1C3A642F4ADB00E5
:1012580013443A6A5A60354BFB612C4A3B6C0421B3
:1012680042F833103B6C5A1C3A64284ADB0013449A
:10127800FA695A602E4BBB61244A3B6C042142F840
:1012880033103B6C5A1C3A64204ADB001344BA6999
:101298005A60284B7B611D4A3B6C042142F833108D
:1012A8003B6C5A1C3A64194ADB0013447A695A6049
:1012B800164A3B6C002142F833103B6C5A1C3A64C6
:1012C800124ADB00134400225A600E4B01221A60B6
:1012D8003B680E4A1A600FE03B687A680321F86899
:1012E800FFF71CFF034687F8473097F8473005E0BB
:1012F800012387F8473000BF97F84730184648372A
:10130800BD4680BDF40100200801002044010020F2
:101318000C010020100100201401002018010020F9
:101328001C010020200100202401002028010020A9
:101338002C0100203001002080B487B000AFF86095
:101348007A603B600B46FB720023FB753B6800220A
:101358001A60FB68002B03D00223FB75FB7D02E0BB
:101368000123FB75FB7D18461C37BD465DF8047BE1
:101378007047000080B58EB00CAF786039607B682C
:10138800002B01D0022328E03B68012B24D1022046
:1013980005F070FC134B0A93134B0993134B0893F6
:1013A800134B0793134B0693134B0593134B04935B
:1013B800134B0393134B0293134B0193134B00935B
:1013C800134B144A1449154805F02EFE022005F067
:1013D80063FC00BF002300E0012318460837BD4620
:1013E80080BD00BF400100203C01002038010020E2
:1013F80034010020300100202C01002028010020A9
:1014080024010020200100201C01002018010020D8
:1014180014010020100100200C0100200801002008
:1014280080B483B000AF786039607B68002B01D04E
:10143800022300E0002318460C37BD465DF8047B04
:101448007047000080B592B002AFF8607A603B60E8
:101458000B46FB72002387F83F303B6800221A6076
:10146800FB68002B05D0022387F83F3097F83F3000
:1014780005E1FB7A062B77D0062B00F3FA80022BC6
:1014880000F08880032B40F0F4807F4B1B68002B12
:101498004DD100237B637D4B3B637D4A7B6B0421ED
:1014A80042F833107B6B5A1C7A63794ADB00134489
:1014B8003A6B5A60774BFB62754A7B6B042142F8A2
:1014C80033107B6B5A1C7A63714ADB001344FA6A47
:1014D8005A60714BBB626E4A7B6B042142F8331031
:1014E8007B6B5A1C7A636A4ADB001344BA6A5A60F7
:1014F8006A4B7B62664A7B6B012142F833107B6B37
:101508005A1C7A63624ADB0013447A6A5A60604A5A
:101518007B6B002142F833107B6B5A1C7A635C4A60
:10152800DB00134400225A60574B01221A60012144
:1015380007F14800FFF720FC0346002B01D00323E6
:101548009DE097F84830092B0AD107F14C03042194
:101558001846FFF711FC0346002B01D003238EE049
:101568003B684B4A1A6088E0022387F83E30002324
:10157800BB63BB6B019397F83E3000933B687A6876
:101588000321F868FFF75EFF034687F83F3097F8B6
:101598003F3074E0424B1B68002B4DD100233B6267
:1015A8003A4BFB613F4A3B6A042142F833103B6ADD
:1015B8005A1C3A623B4ADB001344FA695A60354BBD
:1015C800BB61384A3B6A042142F833103B6A5A1C13
:1015D8003A62344ADB001344BA695A602E4B7B6185
:1015E800304A3B6A042142F833103B6A5A1C3A627B
:1015F8002C4ADB0013447A695A60284B3B61294A1C
:101608003B6A012142F833103B6A5A1C3A62254A68
:10161800DB0013443A695A60224A3B6A002142F8C7
:1016280033103B6A5A1C3A621E4ADB0013440022FC
:101638005A601B4B01221A60012107F14800FFF78D
:101648009BFB0346002B01D0032318E097F8483092
:10165800092B0AD107F14C0304211846FFF78CFB2C
:101668000346002B01D0032309E03B680D4A1A60AA
:1016780003E0012387F83F3000BF97F83F30184652
:101688004037BD4680BD00BFF8010020340100206E
:10169800A4010020380100203C0100204001002066
:1016A800FC010020CC01002080B483B000AF78603A
:1016B8007B68002B01D0022300E0002318460C377A
:1016C800BD465DF8047B704780B400AF0023184620
:1016D800BD465DF8047B704780B483B000AF786086
:1016E80039607B68002B01D0022300E001231846F3
:1016F8000C37BD465DF8047B704780B483B000AFFB
:10170800786039607B68002B01D0022300E0012358
:1017180018460C37BD465DF8047B704780B582B02B
:1017280000AF786039603968786800F04BFE03468E
:10173800064A1360054B1B68B3F1FF3F01D1002334
:1017480000E0012318460837BD4680BD000200208E
:1017580080B500AF064B1B68184600F095FE03469F
:10176800002B01D1012300E00023184680BD00BFF3
:101778000002002080B588B000AF78600B46FB708F
:1017880013463B80FB78FB733B88FB61FB690533A1
:10179800BB61FB69BB607B687B617B69002B01D106
:1017A800002315E0FA7B7B691A707B690133BA68FC
:1017B8001A60094B1B68BA697969184600F08EF8F7
:1017C80038613B69B3F1FF3F01D1002300E00123F9
:1017D80018462037BD4680BD0002002080B586B07F
:1017E80000AF7860396000233B61194B1B6807F133
:1017F8000F010122184600F0A3F878617B69B3F164
:10180800FF3F01D100231EE0114B1B6807F11001B7
:101818000422184600F094F878617B69B3F1FF3F21
:1018280001D100230FE00A4B1B683A6909491846A1
:1018380000F086F878617B68064A1A603B699AB2BC
:101848003B681A80012318461837BD4680BD00BF83
:10185800000200200402002080B400AF01231846D3
:10186800BD465DF8047B704780B400AF00BFBD463D
:101878005DF8047B7047000080B483B000AF7860E7
:101888000B467B807B68044A1A60012318460C3794
:10189800BD465DF8047B70478C02002080B483B09D
:1018A80000AF7860034B18460C37BD465DF8047BE3
:1018B800704700BF9102002080B582B000AF786009
:1018C8000B467B807B881A4601217868FFF752FF18
:1018D8000346DBB218460837BD4680BD80B58AB0DE
:1018E80000AFF860B9607A6000237B62BB683B6236
:1018F8004FF0FF33FB611BE07A68FB69934228BF16
:101908001346BB6107F11403BA69396AF86800F035
:101918007BFD78627B6AB3F1FF3F01D17B6A0BE004
:101928007B697A68D31A7B607B693A6A13443B62A5
:101938007B68002BE0D17B6A18462837BD4680BDFE
:1019480080B58AB000AFF860B9607A6000237B6226
:10195800BB683B624FF0FF33FB611BE07A68FB69B1
:10196800934228BF1346BB6107F11403BA69396A69
:10197800F86800F065FD78627B6AB3F1FF3F01D13A
:101988007B6A0BE07B697A68D31A7B607B693A6A69
:1019980013443B627B68002BE0D17B6A18462837EA
:1019A800BD4680BD80B584B000AFB88008461146FA
:1019B8001A460346FB700B46BB7013467B70FB1C34
:1019C8000121184600F0CEFB0346FB73FB7B002B7E
:1019D80001D0FB7B36E03B79BB7307F10E03012195
:1019E800184600F0BFFB0346FB73FB7B002B01D0BE
:1019F800FB7B27E07B79BB7307F10E0301211846B7
:101A080000F0B0FB0346FB73FB7B002B01D0FB7B94
:101A180018E0BB1C0121184600F0A4FB0346FB7329
:101A2800FB7B002B01D0FB7B0CE07B1C01211846C3
:101A380000F098FB0346FB73FB7B002B01D0FB7B7C
:101A480000E0FB7B18461037BD4680BD80B582B0EC
:101A580000AF0123BB71BB1D0121184600F082FBBA
:101A68000346FB71FB79002B01D0FB7909E000F0FC
:101A7800CFFB0346FB71FB79002B01D0FB7900E01B
:101A8800FB7918460837BD4680BD000090B583B085
:101A980000AF0523BB71BB1D0121184600F062FB96
:101AA8000346FB71FB79002B01D0FB7945E000234D
:101AB800BB71BB1D0121184600F054FB0346FB71A6
:101AC800FB79002B01D0FB7937E01E4B5B6BDAB258
:101AD8001D4B1A7001211C4800F044FB0346FB71A2
:101AE800FB79002B01D0FB7927E0174B1B78002BE3
:101AF80019D0144B5B6BD9B2144B5B6BDCB2144B33
:101B08001A785B781B021343002063F30F00234607
:101B18000A460121FFF746FF0346FB71FB79002BBC
:101B280001D0FB7909E000F073FB0346FB71FB79F8
:101B3800002B01D0FB7900E0FB7918460C37BD4635
:101B480090BD00BF58000020D2020020BC9A0008B7
:101B5800740C002090B583B000AF0023FB71002304
:101B6800BB71BB1D0121184600F0FCFA0346FB714E
:101B7800FB79002B01D0FB7971E03B4B1B68D9B294
:101B88003A4B1B68DCB23A4B1A785B781B0213435A
:101B9800002063F30F0023460A460021FFF702FFE7
:101BA8000346FB71FB79002B01D0FB7957E02E4BE4
:101BB8005B68D9B22D4B5B68DCB22D4B9A78DB7829
:101BC8001B021343002063F30F0023460A4601213A
:101BD800FFF7E8FE0346FB71FB79002B01D0FB7988
:101BE8003DE0214B9B68D9B2204B9B68DCB2204B6F
:101BF8001A795B791B021343002063F30F00234615
:101C08000A460221FFF7CEFE0346FB71FB79002B43
:101C180001D0FB7923E0144BDB68D9B2134BDB68A6
:101C2800DCB2134B9A79DB791B021343002063F370
:101C38000F0023460A460321FFF7B4FE0346FB7153
:101C4800FB79002B01D0FB7909E000F0E1FA0346AB
:101C5800FB71FB79002B01D0FB7900E0FB7918467A
:101C68000C37BD4690BD00BF58000020BC9A000844
:101C7800500C002090B583B000AF0023FB71012306
:101C8800BB71BB1D0121184600F06CFA0346FB71BD
:101C9800FB79002B01D0FB7971E03B4B1B6BD9B270
:101CA8003A4B1B6BDCB23A4B9A7EDB7E1B0213432A
:101CB800002063F30F0023460A460A21FFF772FE4D
:101CC8000346FB71FB79002B01D0FB7957E02E4BC3
:101CD8001B69D9B22D4B1B69DCB22D4B1A7A5B7A82
:101CE8001B021343002063F30F0023460A46042116
:101CF800FFF758FE0346FB71FB79002B01D0FB79F7
:101D08003DE0214B5B69D9B2204B5B69DCB2204BCB
:101D18009A7ADB7A1B021343002063F30F002346F1
:101D28000A460521FFF73EFE0346FB71FB79002BAF
:101D380001D0FB7923E0144B9B69D9B2134B9B6903
:101D4800DCB2134B1A7B5B7B1B021343002063F34B
:101D58000F0023460A460621FFF724FE0346FB71BF
:101D6800FB79002B01D0FB7909E000F051FA03461A
:101D7800FB71FB79002B01D0FB7900E0FB79184659
:101D88000C37BD4690BD00BF58000020BC9A000823
:101D9800500C002090B583B000AF0023FB710223E4
:101DA800BB71BB1D0121184600F0DCF90346FB712D
:101DB800FB79002B01D0FB7957E02E4BDB69D9B2B8
:101DC8002D4BDB69DCB22D4B9A7BDB7B1B0213436B
:101DD800002063F30F0023460A460721FFF7E2FDC0
:101DE8000346FB71FB79002B01D0FB793DE0214BC9
:101DF8001B6AD9B2204B1B6ADCB2204B1A7C5B7C75
:101E08001B021343002063F30F0023460A460821F0
:101E1800FFF7C8FD0346FB71FB79002B01D0FB7966
:101E280023E0144B5B6AD9B2134B5B6ADCB2134BE9
:101E38009A7CDB7C1B021343002063F30F002346CC
:101E48000A460921FFF7AEFD0346FB71FB79002B1B
:101E580001D0FB7909E000F0DBF90346FB71FB795F
:101E6800002B01D0FB7900E0FB7918460C37BD4602
:101E780090BD00BF58000020BC9A0008500C0020FC
:101E880090B583B000AF0023FB710323BB71BB1D6A
:101E98000121184600F066F90346FB71FB79002B17
:101EA80001D0FB7957E02E4B93F828102D4B93F86F
:101EB80028402D4B1A7D5B7D1B021343002063F3E2
:101EC8000F0023460A460D21FFF76CFD0346FB7100
:101ED800FB79002B01D0FB793DE0214B93F82910C9
:101EE800204B93F82940204B9A7DDB7D1B0213433E
:101EF800002063F30F0023460A460C21FFF752FD2A
:101F08000346FB71FB79002B01D0FB7923E0144BCE
:101F1800DB6AD9B2134BDB6ADCB2134B1A7E5B7EE9
:101F28001B021343002063F30F0023460A460B21CC
:101F3800FFF738FD0346FB71FB79002B01D0FB79D5
:101F480009E000F065F90346FB71FB79002B01D02D
:101F5800FB7900E0FB7918460C37BD4690BD00BF01
:101F680058000020BC9A0008500C002090B583B09F
:101F780000AF0023FB710423BB71BB1D0121184670
:101F880000F0F0F80346FB71FB79002B01D0FB79D8
:101F980075E03D4BDB6BD9B23C4BDB6BDCB23C4BA9
:101FA8001A7F5B7F1B021343002063F30F00234655
:101FB8000A460E21FFF7F6FC0346FB71FB79002B5E
:101FC80001D0FB795BE0304B1B6CD9B22F4B1B6CFB
:101FD800DCB22F4B9A7FDB7F1B021343002063F395
:101FE8000F0023460A460F21FFF7DCFC0346FB716E
:101FF800FB79002B01D0FB7941E0234B5B6CD9B214
:10200800224B5B6CDCB2224B93F8202093F82130F2
:102018001B021343002063F30F0023460A461021D6
:10202800FFF7C0FC0346FB71FB79002B01D0FB795D
:1020380025E0154B9B6CD9B2144B9B6CDCB2144B4E
:1020480093F8222093F823301B021343002063F3F4
:102058000F0023460A461121FFF7A4FC0346FB7133
:10206800FB79002B01D0FB7909E000F0D1F8034699
:10207800FB71FB79002B01D0FB7900E0FB79184656
:102088000C37BD4690BD00BF58000020BC9A000820
:10209800500C002080B582B000AF0623BB7105F05C
:1020A800E7FFFFF7D3FC0346FB71FB79002B01D058
:1020B800FB7946E0FFF7EAFC0346FB71FB79002B4E
:1020C80001D0FB793DE0FFF745FD0346FB71FB7945
:1020D800002B01D0FB7934E0FFF7CCFD0346FB7100
:1020E800FB79002B01D0FB792BE0FFF753FE034669
:1020F800FB71FB79002B01D0FB7922E0FFF7C0FED2
:102108000346FB71FB79002B01D0FB7919E0FFF73F
:102118002DFF0346FB71FB79002B01D0FB7910E002
:10212800BB1D0121184600F01DF80346FB71FB7921
:10213800002B01D0FB7904E000F06AF80346FB713C
:10214800FB7918460837BD4680BD80B500AFFFF75C
:10215800A1FF0346002B01D0012300E0002318460D
:1021680080BD000080B586B000AF7860396000237C
:10217800FB751B233B613B68FB60134B1B881A46AE
:10218800FB6813443A699A4203D20223FB75FB7D2C
:1021980015E00E4B1B68FA687968184606F032FCA1
:1021A800FB689AB2084B1B8813449AB2064B1A80F4
:1021B800064B1A68FB681344044A1360FB7D1846F3
:1021C8001837BD4680BD00BFDC020020D8020020C1
:1021D80080B500AF20210B4800F060F80346002BC3
:1021E80001D101230BE0074B1B68184600F068F883
:1021F8000346054A1360054B00221A80002318463F
:1022080080BD00BFD4020020D8020020DC020020DC
:1022180080B500AF0C4B1B680C4A12881146184653
:1022280000F05CF803461A4600239A4201D10223C3
:1022380007E0FFF7CDFF0346002B01D0022300E0A3
:102248000023184680BD00BFD4020020DC02002015
:1022580080B500AF00F012F803461A4601239A42EF
:1022680001D0012302E0FFF7B3FF0346184680BD03
:1022780080B500AF00F00AF800BF80BD80B400AFA1
:1022880001231846BD465DF8047B704780B400AF53
:1022980000BFBD465DF8047B7047000080B483B082
:1022A80000AF78600B467B807B68044A1A60012384
:1022B80018460C37BD465DF8047B7047E0020020E5
:1022C80080B483B000AF7860034B18460C37BD4626
:1022D8005DF8047B704700BFE502002080B582B03E
:1022E80000AF78600B467B807B881A4603217868AC
:1022F800FFF740FA0346DBB218460837BD4680BDF3
:1023080080B586B000AF0023FB7500233B61012335
:102318007B600023FB600023BB60B968F868FEF7A8
:10232800F5FD0346FB7597F91730002B14BF012301
:102338000023DBB23B6118E0FEF792FC0346FB7515
:1023480097F91730002B10D097F91730B3F1FF3FEA
:1023580009D1FEF704FE0346002B14BF0123002316
:10236800DBB23B6101E001233B617B68002B02D0BB
:102378003B69002BE0D03B69002B03D000BF7B6892
:10238800002BFCD197F9173018461837BD4680BD89
:1023980080B582B000AF03F099FF01F0B7FE01F0FD
:1023A80041FA01F0E7FF01F0CDFF01F005FF01F070
:1023B8009BFFFFF7A5FF78607B6818460837BD4686
:1023C80080BD000080B584B000AF7860396000231C
:1023D800FB60094B094A1A60074B1B68084AD3611E
:1023E800074801F00DF80346064A1360FB681846D3
:1023F8001037BD4680BD00BF0403002048030020FD
:10240800040000200003002080B586B002AFF86009
:10241800B9607A603B603B6800221A60074B186815
:102428003B6800934FF47A737A68B96801F0E2F870
:10243800002318461037BD4680BD00BF00030020AA
:1024480080B586B000AFF860B9607A603B603B68E1
:1024580000221A600B4B1B6800227968184600F0AE
:102468001CFD78617B69002B06D0064B18683B6819
:102478007A69B96801F090F8002318461837BD4604
:1024880080BD00BF0003002080B582B000AF786037
:10249800044B1B68184601F06FF9002318460837EB
:1024A800BD4680BD0003002080B400AF044BDB684C
:1024B8001B0A03F007031846BD465DF8047B704706
:1024C80000ED00E080B483B000AF0346FB7197F9DC
:1024D8000730002B0BDBFB7903F01F02074997F944
:1024E80007305B09012000FA02F241F8232000BFFF
:1024F8000C37BD465DF8047B704700BF00E100E083
:1025080080B483B000AF03463960FB7197F9073098
:10251800002B0ADB3B68DAB20C4997F90730120145
:10252800D2B20B4483F800230AE03B68DAB20849C8
:10253800FB7903F00F03043B1201D2B20B441A7665
:1025480000BF0C37BD465DF8047B704700E100E032
:1025580000ED00E080B489B000AFF860B9607A603F
:10256800FB6803F00703FB61FB69C3F10703042B56
:1025780028BF0423BB61FB690433062B02D9FB691E
:10258800033B00E000237B614FF0FF32BB6902FA96
:1025980003F3DA43BB681A407B699A404FF0FF3176
:1025A8007B6901FA03F3D9437B680B401343184650
:1025B8002437BD465DF8047B7047000080B483B0C3
:1025C80000AF786039600C4A3B6813441B781A46A0
:1025D8007B6813441B6808493A680A441278114614
:1025E8007A680A4443F00103136000BF0C37BD4604
:1025F8005DF8047B704700BF648A000880B483B02C
:1026080000AF786039600C4A3B6813441B781A465F
:102618007B6813441B6808493A680A4412781146D3
:102628007A680A4423F00103136000BF0C37BD46E3
:102638005DF8047B704700BF648A000880B483B0EB
:1026480000AF78603960084A3B6813441B781A4623
:102658007B6813441B6803F4907318460C37BD4617
:102668005DF8047B704700BF648A000880B485B0B9
:1026780000AFF860B9607A600D4ABB6813441B78F4
:102688001A46FB6813445A680A4B13400849BA684B
:102698000A4412781146FA680A4411467A681343C4
:1026A8004B6000BF1437BD465DF8047B704700BF20
:1026B800648A00080000FFFF80B483B000AF786030
:1026C8003960074A3B6813441B781A467B681344F1
:1026D8005B689BB218460C37BD465DF8047B7047B3
:1026E800648A000880B485B000AFF860B9607A6089
:1026F8003B60BB69402B14D1174ABB6813441B7855
:102708001A46FB6813441A467B68D360124ABB68B2
:1027180013441B781A46FB6813441A463B689360B7
:1027280013E00D4ABB6813441B781A46FB68134430
:102738001A467B689360084ABB6813441B781A469C
:10274800FB6813441A463B68D36000BF1437BD4684
:102758005DF8047B704700BF648A000880B483B0CA
:1027680000AF78607B681B6803F40063B3F5006F03
:102778000CBF01230023DBB218460C37BD465DF8B9
:10278800047B704780B483B000AF78607B684FF4F7
:1027980000629A6000BF0C37BD465DF8047B704745
:1027A80080B483B000AF786039600C4A3B6813444A
:1027B8001B781A467B6813441B6808493A680A4420
:1027C800127811467A680A4443F01003136000BF78
:1027D8000C37BD465DF8047B704700BF648A00086B
:1027E80080B483B000AF786039600C4A3B6813440A
:1027F8001B781A467B6813441B6808493A680A44E0
:10280800127811467A680A4423F01003136000BF57
:102818000C37BD465DF8047B704700BF648A00082A
:1028280080B483B000AF786039600A4A3B681344CB
:102838001B781A467B6813441B6803F01003102B9F
:102848000CBF01230023DBB218460C37BD465DF8E8
:10285800047B7047648A000880B483B000AF786056
:102868007B681B6843F001027B681A6000BF0C3765
:10287800BD465DF8047B704780B483B000AF7860D4
:102888007B681B6823F001027B681A6000BF0C3765
:10289800BD465DF8047B704780B483B000AF7860B4
:1028A8007B685B6803F48013B3F5801F01D10123B3
:1028B80000E0002318460C37BD465DF8047B7047DE
:1028C80080B483B000AF78607B68DB6903F00103F4
:1028D800012B01D1012300E0002318460C37BD4627
:1028E8005DF8047B704780B483B000AF78607B6884
:1028F800DB6903F00203022B01D1012300E000236E
:1029080018460C37BD465DF8047B704780B483B029
:1029180000AF78607B68DB6903F00403042B01D106
:10292800012300E0002318460C37BD465DF8047B00
:10293800704780B483B000AF78607B68DB6903F0D0
:102948000803082B01D1012300E0002318460C37A7
:10295800BD465DF8047B704780B483B000AF7860F3
:102968007B68DB6903F04003402B01D1012300E0C1
:10297800002318460C37BD465DF8047B704780B4C9
:1029880083B000AF78607B68DB6903F08003802B3D
:1029980001D1012300E0002318460C37BD465DF83D
:1029A800047B704780B483B000AF78607B68DB69D4
:1029B80003F48043B3F5804F01D1012300E00023E5
:1029C80018460C37BD465DF8047B704780B483B069
:1029D80000AF78607B68DB6903F40043B3F5004F10
:1029E80001D1012300E0002318460C37BD465DF8ED
:1029F800047B704780B483B000AF78607B680122A5
:102A08001A6200BF0C37BD465DF8047B704780B47E
:102A180083B000AF78607B6802221A6200BF0C376F
:102A2800BD465DF8047B704780B483B000AF786022
:102A38007B6804221A6200BF0C37BD465DF8047B30
:102A4800704780B483B000AF78607B6808221A6250
:102A580000BF0C37BD465DF8047B704780B489B071
:102A680000AF78607B68FB60FB6853E8003FBB60A1
:102A7800BB6843F02003FB617B68FA69BA617B613C
:102A88007969BA6941E800233B613B69002BE9D1C8
:102A980000BF00BF2437BD465DF8047B704780B493
:102AA80089B000AF78607B68FB60FB6853E8003F43
:102AB800BB60BB6843F48073FB617B68FA69BA61E9
:102AC8007B617969BA6941E800233B613B69002B66
:102AD800E9D100BF00BF2437BD465DF8047B7047CD
:102AE80080B489B000AF78607B680833FB60FB680E
:102AF80053E8003FBB60BB6843F00103FB617B68A0
:102B08000833FA69BA617B617969BA6941E80023D7
:102B18003B613B69002BE7D100BF00BF2437BD46AE
:102B28005DF8047B704780B489B000AF78607B683B
:102B3800FB60FB6853E8003FBB60BB6823F02003E1
:102B4800FB617B68FA69BA617B617969BA6941E8B6
:102B580000233B613B69002BE9D100BF00BF24374C
:102B6800BD465DF8047B704780B489B000AF7860DB
:102B78007B68FB60FB6853E8003FBB60BB6823F0E1
:102B88008003FB617B68FA69BA617B617969BA691C
:102B980041E800233B613B69002BE9D100BF00BF3E
:102BA8002437BD465DF8047B704780B489B000AF18
:102BB80078607B68FB60FB6853E8003FBB60BB68DC
:102BC80023F48073FB617B68FA69BA617B61796978
:102BD800BA6941E800233B613B69002BE9D100BF9A
:102BE80000BF2437BD465DF8047B704780B489B0C8
:102BF80000AF78607B680833FB60FB6853E8003FF0
:102C0800BB60BB6823F00103FB617B680833FA698A
:102C1800BA617B617969BA6941E800233B613B6924
:102C2800002BE7D100BF00BF2437BD465DF8047B09
:102C3800704780B489B000AF78607B680833FB6068
:102C4800FB6853E8003FBB60BB6843F04003FB618F
:102C58007B680833FA69BA617B617969BA6941E8C6
:102C680000233B613B69002BE7D100BF00BF24373D
:102C7800BD465DF8047B704780B489B000AF7860CA
:102C88007B680833FB60FB6853E8003FBB60BB68A8
:102C980023F04003FB617B680833FA69BA617B6102
:102CA8007969BA6941E800233B613B69002BE7D1A8
:102CB80000BF00BF2437BD465DF8047B704780B471
:102CC80089B000AF78607B680833FB60FB6853E825
:102CD800003FBB60BB6843F08003FB617B6808333F
:102CE800FA69BA617B617969BA6941E800233B6195
:102CF8003B69002BE7D100BF00BF2437BD465DF814
:102D0800047B704780B489B000AF78607B68083373
:102D1800FB60FB6853E8003FBB60BB6823F080039F
:102D2800FB617B680833FA69BA617B617969BA69C2
:102D380041E800233B613B69002BE7D100BF00BF9E
:102D48002437BD465DF8047B704780B485B000AF7A
:102D5800786039603B68002B03D17B682833FB60BF
:102D680002E07B682433FB60FB6818461437BD46D5
:102D78005DF8047B704780B483B000AF78607B68EF
:102D88005B6ADBB218460C37BD465DF8047B7047BA
:102D980080B483B000AF78600B46FB70FA787B682C
:102DA8009A6200BF0C37BD465DF8047B704780B45B
:102DB80083B000AF78607B689B6943F001027B6851
:102DC8009A6100BF0C37BD465DF8047B704780B53B
:102DD80086B000AF78607B6893F83C30FB737B6803
:102DE8009B7D03F00403002B03D07B681B6B7B6186
:102DF8000DE07B685A687B681B7C19461046FFF714
:102E08005BFCB8607B685A6ABB68D31A7B617B68D5
:102E18005B6A7A699A4201D100237B61FB7B002BB4
:102E280014D07B689B7D03F01003002B0ED07B68C9
:102E3800DB6A7A699A4209D97B681B8B43F02003C5
:102E48009AB27B681A837B687A69DA627B68DB6A84
:102E58007A699A4205D97B68DB6A7A69D31A3B6139
:102E680016E07B68DB6A7A699A4208D27B685A6AFC
:102E78007B68DB6AD31A7A6913443B6108E0FB7B01
:102E8800002B03D07B685B6A3B6101E000233B6158
:102E98003B6918461837BD4680BD80B588B000AF7D
:102EA800F860B9607A600023BB61F868FFF78FFFAC
:102EB8000246BB68934215D97B68002B12D003F0F9
:102EC80027FA786100BFF868FFF781FF0246BB6800
:102ED800934207D90121786900F0CCFC02467B684F
:102EE8009342F0D2F868FFF772FFB861BA69BB681D
:102EF8009A4202D2BB69FB6101E0BB68FB61FB69D6
:102F080018462037BD4680BD80B586B000AFF86052
:102F1800B9607A603B603B6800221A600023FB823C
:102F2800FB68DA6A7B681A44FB685B6A9A4227D9AD
:102F3800FB685A6AFB68DB6AD31A3B61FB68DA698B
:102F4800FB68DB6A13443A691946B86805F05AFD0C
:102F5800FB68DA6A7B681A44FB685B6AD21AFB680A
:102F6800DA623B69BA68D018FB68D969FB68DB6A22
:102F78001A4605F047FDFB68002283F83C200FE065
:102F8800FB68DA69FB68DB6A13447A681946B86833
:102F980005F038FDFB68DA6A7B681A44FB68DA6278
:102FA800FB68DA6AFB685B6A9A4206D1FB68002212
:102FB800DA62FB68002283F83C20F86800F07CF9AC
:102FC8000346FB823B687A681A60FB8A1846183702
:102FD800BD4680BD80B584B000AFF860B9607A6046
:102FE800FB685A68FB681B7C19461046FFF718FCFB
:102FF8000346002B57D0FB685A68BB6810469847B1
:103008000346002B4FD0FB685A687B6810469847E8
:10301800FB6893F83C30002B09D0FB681B8B43F00E
:1030280020039AB2FB681A83FB680022DA62FB6805
:10303800012283F83C20FB685A68FB681B7C194610
:103048001046FFF7FBFA0346002B2CD1FB681B7DCB
:1030580083F00103DBB2002B0BD1FB681B7D002B37
:1030680021D0FB681B8B002B03D0FB681B8B202B0C
:1030780019D1FB685A68FB681B7C19461046FFF794
:10308800BDFAFB685868FB681B7C1946FB685B6ADD
:103098001A46FFF7EBFAFB685A68FB681B7C19466F
:1030A8001046FFF78BFA00BF1037BD4680BD80B5CC
:1030B80084B000AF78600023FB737B681B681846F8
:1030C800FFF737FC0346012B08D17B681B8B43F0C5
:1030D80002039AB27B681A830123FB737B681B681F
:1030E8001846FFF700FC0346012B08D17B681B8BB1
:1030F80043F008039AB27B681A830123FB737B6849
:103108001B681846FFF702FC0346012B08D17B68B1
:103118001B8B43F010039AB27B681A830123FB735D
:103128007B681B681846FFF7CBFB0346012B08D1C9
:103138007B681B8B43F004039AB27B681A830123D4
:10314800FB73FB7B012B28D17B681B7D002B10D0E8
:103158007B689B7D03F00403002B05D07B681B680C
:103168001846FFF7E0FC04E07B681B681846FFF789
:1031780083FD7B681B681846FFF73CFC7B681B686F
:103188001846FFF75EFC7B681B681846FFF73FFC94
:103198007B681B681846FFF747FC00BF1037BD4621
:1031A80080BD000080B500AF0248FFF780FF00BF78
:1031B80080BD00BF0803002080B500AF034A044962
:1031C8000448FFF707FF00BF80BD00BF8D27000838
:1031D8006527000808030020B0B584B002AF786006
:1031E8007B685C687B681B7C1D467B681B680121CB
:1031F8001846FFF7AAFD02467B68DB6919460023DB
:1032080000930B4629462046FFF76CFA7B685868FE
:103218007B681B7C19467B685B6A1A46FFF726FAAF
:103228007B685A687B681B7C19461046FFF7B8FA1A
:103238007B681B681846FFF7FCFC7B681B689A686C
:103248007B681B6842F040029A607B685A687B681A
:103258001B7C19461046FFF7B1F900BF0837BD4679
:10326800B0BDF0B585B002AF78607B689C687B68BC
:103278005B7C1D467B681B6A1E467B681B680021B9
:103288001846FFF762FD034640220092324629465F
:103298002046FFF727FA7B689A687B685B7C1946AB
:1032A8001046FFF77DFA7B681B681846FFF707FD95
:1032B80000BF0C37BD46F0BD80B584B000AF786064
:1032C8000023FB817B681B8B03F02003002B0AD0B3
:1032D800FB8943F02003FB817B681B8B23F02003D1
:1032E8009AB27B681A837B681B68414A93420ED066
:1032F8007B681B683F4A934209D07B681B683E4A3B
:10330800934204D07B681B683C4A934220D17B6877
:103318001B681846FFF7C0FA0346002B18D07B68D5
:103328001B681846FFF752FB0346002B10D07B683A
:103338001B681846FFF736FB0346002B08D0FB89AD
:1033480043F40073FB817B681B681846FFF72FFD69
:103358007B681B7D83F00103DBB2002B08D07B6800
:103368001A8BFB891343FB817B6800221A833AE09E
:103378007B681B7D002B36D07868FFF728FD034655
:10338800002B30D17B681B8B002B2CD07B681A8BD1
:10339800FB891343FB817B6800221A837B689B7D32
:1033A80003F00403002B0FD07B681B681846FFF757
:1033B800E2FC7B681B681846FFF743FB7B681B68C9
:1033C8001846FFF74BFB0EE07B681B681846FFF7B3
:1033D800D2FC7B681B681846FFF733FB7B681B68C9
:1033E8001846FFF726FCFB8918461037BD4680BDF6
:1033F8000010014000440040004800400014014013
:1034080080B584B000AF78607B681B681A46604B53
:103418009A4202D15F4BFB6002E00023FB6000BFD1
:10342800FB68002B00F0AF80FB685A7D7B685B7DF2
:103438001343DAB2FB685A75FB689A7D7B689B7DFB
:103448001343DAB2FB689A757B681A68FB681A60DE
:10345800FB6800221A83FB6800225A83FB681B68FA
:103468001846FFF709FA7B685B7D03F00103002B20
:103478003CD07B685A6AFB685A627B68DA69FB68E9
:10348800DA61FB680022DA62FB6800221A637B6853
:103498001A7DFB681A75FB68002283F83C20FB68DC
:1034A8009B7D03F01003002B15D07B685A68FB68DE
:1034B8005A607B681A7CFB681A74F868FFF78CFE00
:1034C800FB681B681846FFF70BFBFB681B68184670
:1034D800FFF7E5FA0AE0FB689B7D03F00403002B85
:1034E80004D0FB681B681846FFF7B8FA7B685B7D59
:1034F80003F00203002B27D07B689A6AFB689A6264
:103508007B681A6AFB681A62FB6800225A63FB68C8
:1035180000229A63FB6800229A74FB680022DA741E
:10352800FB689B7D03F02003002B0DD07B689A6815
:10353800FB689A607B685A7CFB685A74FB680022B7
:10354800DA60F868FFF78DFEFB681B681846FFF71E
:1035580083F97B681B681A460D4B9A4210D1FEF717
:10356800A3FF0346002200211846FEF7F3FF034697
:1035780019462720FEF7C4FF2720FEF7A3FF02E025
:103588000023FB6000BFFB6818461037BD4680BDAE
:10359800004800400803002080B586B000AFF860FE
:1035A800B9607A603B603B6800221A60FB685B8BFD
:1035B80003F48073002B02D04FF4807316E0FB688D
:1035C8005B8B43F480739AB2FB685A833B687A68D2
:1035D800B968F868FFF798FC0346FB82FB685B8BC9
:1035E80023F480739AB2FB685A83FB8A184618370B
:1035F800BD4680BD80B588B000AFF860B9607A601C
:103608003B60BB6A00221A60BB68BB61FB685B8BCE
:1036180003F08003002B01D08023A9E0FB685B8BBB
:1036280043F080039AB2FB685A830023FB610023AE
:103638007B610023FB614AE0FB681B681846FFF7C3
:103648009EF90346002B36D13B68002B27D002F0A9
:103658005FFE786100BFFB681B681846FFF78FF9AB
:103668000346002B07D10121786900F003F90246CF
:103678003B689342EFD20121786900F0FBF80246DB
:103688003B68934217D2BB6AFA691A60FB685B8B86
:1036980023F080039AB2FB685A83402368E0BB6A30
:1036A800FA691A60FB685B8B23F080039AB2FB68A7
:1036B8005A8340235CE0FB681868BA69FB691344C5
:1036C8001B781946FFF764FBFB690133FB61FA6954
:1036D8007B689A42B0D3FB681B681846FFF73CF931
:1036E8000346002B39D13B68002B29D002F010FE8D
:1036F800786114E00121786900F0BCF802463B6863
:1037080093420CD27B685A1EBB6A1A60FB685B8BBB
:1037180023F080039AB2FB685A83402328E0FB68B1
:103728001B681846FFF718F90346002B15D101212D
:10373800786900F09FF802463B689342DAD20CE0C1
:103748007B685A1EBB6A1A60FB685B8B23F0800398
:103758009AB2FB685A8340230AE0BB6A7A681A6007
:10376800FB685B8B23F080039AB2FB685A830023C3
:1037780018462037BD4680BD80B582B000AF78605E
:103788007B681B681846FFF777F87B689B7D03F01A
:103798002003002B0DD07B689A687B685B7C1946F8
:1037A8001046FFF71DF87B681B681846FFF7AAFA52
:1037B8000AE07B689B7D03F00803002B04D07B683C
:1037C8001B681846FFF7D0F97B689B7D03F0100350
:1037D800002B17D07B681B681846FFF707FA7B6831
:1037E8001B681846FFF7E1F97B685A687B681B7C01
:1037F80019461046FEF7F4FF7B681B681846FFF76A
:103808003BFA0AE07B689B7D03F00403002B04D09D
:103818007B681B681846FFF786F900BF0837BD4666
:1038280080BD000080B400AF00BFBD465DF8047BDA
:10383800704700BF10B50E4C82B0636A019302F066
:1038480067FD0090626A019B9A4207D3009B4FF480
:103858007A72019802FB030002B010BD02F058FD15
:10386800636A4FF47A7202FB003002B010BD00BFE9
:10387800000C004010B5044641B9FFF7DBFF0346D2
:10388800181BA34238BF00F1FF3010BD02F040FD05
:103898000346181BA34238BF00F1FF3010BD00BF1C
:1038A80080B400AF044BDB681B0A03F0070318461B
:1038B800BD465DF8047B704700ED00E080B483B03E
:1038C80000AF0346FB7197F90730002B0BDBFB7940
:1038D80003F01F02074997F907305B09012000FA36
:1038E80002F241F8232000BF0C37BD465DF8047B87
:1038F800704700BF00E100E080B483B000AF03462A
:103908003960FB7197F90730002B0ADB3B68DAB2A4
:103918000C4997F907301201D2B20B4483F80023FF
:103928000AE03B68DAB20849FB7903F00F03043B6D
:103938001201D2B20B441A7600BF0C37BD465DF8AF
:10394800047B704700E100E000ED00E080B489B03E
:1039580000AFF860B9607A60FB6803F00703FB61A9
:10396800FB69C3F10703042B28BF0423BB61FB6970
:103978000433062B02D9FB69033B00E000237B617B
:103988004FF0FF32BB6902FA03F3DA43BB681A400F
:103998007B699A404FF0FF317B6901FA03F3D94301
:1039A8007B680B40134318462437BD465DF8047BFB
:1039B8007047000080B485B000AFF860B9607A60E5
:1039C8000D4ABB6813441B781A46FB6813441B68EE
:1039D80023F0C0020849BB680B441B781946FB68F2
:1039E8000B4419467B6813430B6000BF1437BD4670
:1039F8005DF8047B704700BF6C8A000880B485B00E
:103A080000AFF860B9607A600D4ABB6813441B7850
:103A18001A46FB6813441B6823F490720849BB6874
:103A28000B441B781946FB680B4419467B68134303
:103A38000B6000BF1437BD465DF8047B704700BFBC
:103A48006C8A000880B485B000AFF860B9607A600D
:103A58000D4ABB6813441B781A46FB6813441B685D
:103A680023F400720849BB680B441B781946FB68AD
:103A78000B4419467B6813430B6000BF1437BD46DF
:103A88005DF8047B704700BF6C8A000880B485B07D
:103A980000AFF860B9607A600D4ABB6813441B78C0
:103AA8001A46FB6813441B6823F480620849BB6804
:103AB8000B441B781946FB680B4419467B68134373
:103AC8000B6000BF1437BD465DF8047B704700BF2C
:103AD8006C8A000880B485B000AFF860B9607A607D
:103AE8000D4ABB6813441B781A46FB6813441B68CD
:103AF80023F4C0520849BB680B441B781946FB687D
:103B08000B4419467B6813430B6000BF1437BD464E
:103B18005DF8047B704700BF6C8A000880B485B0EC
:103B280000AFF860B9607A600D4ABB6813441B782F
:103B38001A46FB6813441B6823F4C0420849BB6853
:103B48000B441B781946FB680B4419467B681343E2
:103B58000B6000BF1437BD465DF8047B704700BF9B
:103B68006C8A000880B485B000AFF860B9607A60EC
:103B78000D4ABB6813441B781A46FB6813441B683C
:103B880023F440320849BB680B441B781946FB688C
:103B98000B4419467B6813430B6000BF1437BD46BE
:103BA8005DF8047B704700BF6C8A000880B485B05C
:103BB80000AFF860B9607A600D4ABB6813441B789F
:103BC8001A46FB6813441B6823F0F0520849BB6887
:103BD8000B441B781946FB680B4419467B68134352
:103BE8000B6000BF1437BD465DF8047B704700BF0B
:103BF8006C8A000880B483B000AF786039600C4AE2
:103C08003B6813441B781A467B6813445B69084970
:103C18003A680A44127811467A680A4423F0040381
:103C2800536100BF0C37BD465DF8047B704700BF89
:103C38006C8A000880B400AF054B1B68044A43F443
:103C48008023136000BFBD465DF8047B704700BF4A
:103C58000038024080B400AF054B1B68044A43F4A7
:103C68008033136000BFBD465DF8047B704700BF1A
:103C78000038024080B400AF074B1B6803F40033E0
:103C8800B3F5003F0CBF01230023DBB21846BD4645
:103C98005DF8047B704700BF0038024080B483B0F1
:103CA80000AF7860064B9B6823F0030204497B68E9
:103CB80013438B6000BF0C37BD465DF8047B70472B
:103CC8000038024080B400AF044B9B6803F00C033B
:103CD8001846BD465DF8047B704700BF00380240B7
:103CE80080B483B000AF7860064B9B6823F0F00285
:103CF80004497B6813438B6000BF0C37BD465DF8F1
:103D0800047B70470038024080B483B000AF78600D
:103D1800064B9B6823F4E05204497B6813438B608D
:103D280000BF0C37BD465DF8047B70470038024081
:103D380080B483B000AF7860064B9B6823F4604280
:103D480004497B6813438B6000BF0C37BD465DF8A0
:103D5800047B70470038024080B483B000AF7860BD
:103D6800094BD3F890207B681B0CDB431A407B6817
:103D78009BB205491343C1F8903000BF0C37BD46CC
:103D88005DF8047B704700BF0038024080B400AF84
:103D9800054B1B68044A43F08073136000BFBD469F
:103DA8005DF8047B704700BF0038024080B400AF64
:103DB800074B1B6803F00073B3F1007F0CBF0123AE
:103DC8000023DBB21846BD465DF8047B704700BF90
:103DD8000038024080B485B000AFF860B9607A60FE
:103DE8003B600A4B5A680A4B1340F968BA6811439A
:103DF8007A68920111433A680A43044913434B60B5
:103E080000BF1437BD465DF8047B70470038024098
:103E18000080BCFF80B485B000AFF860B9607A60FC
:103E28003B600A4B5A680A4B1340F968BA68114359
:103E38007A68920111433A680A43044913434B6074
:103E480000BF1437BD465DF8047B70470038024058
:103E58000080BFF080B485B000AF7860084B1A6B63
:103E680007497B6813430B63054B1A6B7B68134048
:103E7800FB60FB6800BF1437BD465DF8047B7047E4
:103E88000038024080B485B000AF7860084B1A6CE7
:103E980007497B6813430B64054B1A6C7B68134016
:103EA800FB60FB6800BF1437BD465DF8047B7047B4
:103EB8000038024080B487B000AF78603960174A94
:103EC8003B68DBB2023352F823203B681B0CDB4310
:103ED80002EA03013B681B0C3B613B6993FAA3F3BD
:103EE800FB60FB687B617B69002B01D1202303E029
:103EF8007B69B3FA83F3DBB21A467B6803FA02F2F2
:103F080006483B68DBB20A43023340F8232000BF6F
:103F18001C37BD465DF8047B704700BF0038014080
:103F280080B483B000AF7860064B1B6823F00F02A3
:103F380004497B6813430B6000BF0C37BD465DF82E
:103F4800047B7047003C024080B400AF044B1B6800
:103F580003F00F031846BD465DF8047B704700BFA9
:103F6800003C024080B400AF054B1B68044A43F490
:103F78008033136000BFBD465DF8047B704700BF07
:103F88000070004080B483B000AF7860064B1B68B7
:103F980023F4404204497B6813430B6000BF0C378D
:103FA800BD465DF8047B70470070004080B483B064
:103FB80000AF78607B681B6843F001027B681A6079
:103FC80000BF0C37BD465DF8047B704780B483B0F2
:103FD80000AF78607B685B6823F490427B685A6026
:103FE8007B689B6823F02A027B689A6000BF0C37C5
:103FF800BD465DF8047B704780B48BB000AFF860B5
:10400800B9607A60FB681A68BB687B617B6993FA60
:10401800A3F33B613B69BB61BB69002B01D1202342
:1040280003E0BB69B3FA83F3DBB25B00032101FA57
:1040380003F3DB431A40BB683B623B6A93FAA3F382
:10404800FB61FB697B627B6A002B01D1202303E0C3
:104058007B6AB3FA83F3DBB25B00796801FA03F396
:104068001A43FB681A6000BF2C37BD465DF8047B15
:10407800704780B48BB000AFF860B9607A60FB68B5
:10408800DA68BB687B617B6993FAA3F33B613B69A0
:10409800BB61BB69002B01D1202303E0BB69B3FAE4
:1040A80083F3DBB25B00032101FA03F3DB431A401D
:1040B800BB683B623B6A93FAA3F3FB61FB697B62D3
:1040C8007B6A002B01D1202303E07B6AB3FA83F3D8
:1040D800DBB25B00796801FA03F31A43FB68DA6024
:1040E80000BF2C37BD465DF8047B704780B483B0B1
:1040F80000AF786039603B681A047B689A6100BF3A
:104108000C37BD465DF8047B7047000080B500AFF2
:104118000720FFF705FF00BFFFF716FF0346072B31
:10412800FAD14FF44040FFF72DFFFFF71BFFFFF7D1
:1041380081FDFFF78FFD00BFFFF79CFD0346012BB4
:10414800FAD10023D82204214FF48000FFF742FE61
:104158004FF01063D82204214FF48000FFF75AFE75
:10416800FFF714FE00BFFFF721FE0346012BFAD12B
:104178000020FFF7B5FD4FF4A050FFF7C5FD4FF441
:104188000040FFF7D5FD0220FFF788FD00BFFFF7CD
:1041980099FD0346082BFAD1064801F08FFC002050
:1041A80000F010FB0346002B01D000F039FA00BFE5
:1041B80080BD00BF00E6DF0C80B58EB000AF07F110
:1041C8001C0300221A605A609A60DA601A615A6108
:1041D8009A613B1D00221A605A609A60DA601A617F
:1041E8005A614FF44010FFF7B7FD4FF48020FFF7F6
:1041F80049FE0820FFF72EFE4FF480737B600223F0
:10420800BB600323FB6000233B6100237B61072322
:10421800BB613B1D1946314800F057FF4FF400734E
:104228007B600223BB600323FB6000233B61002308
:104238007B610723BB613B1D1946284800F045FFF9
:104248004FF0006201212648FFF7B0FC002201214F
:104258002348FFF7AFFB002201212148FFF782FC2A
:10426800002201211E48FFF7C9FB002201211C483A
:10427800FFF7E8FB4FF4806201211948FFF706FCBD
:10428800002201211648FFF725FC002201211448CD
:10429800FFF744FC01211248FFF7ACFC4FF4E1336F
:1042A800FB6100233B6200237B620023BB620C237B
:1042B800FB6200233B6300237B6307F11C03194661
:1042C800084800F0F5FF0748FFF780FE0548FFF7AC
:1042D8006DFE00BF3837BD4680BD00BF000C0240F0
:1042E800006002400048004080B500AF144B4FF01A
:1042F800A0421A60124B06225A60114B0222DA6061
:104308000F4B00221A610E4B02229A610C4B0122BC
:10431800DA610B4B00221A62094B00225A62084BE1
:104328000122DA62064B00221A63054802F020F8DF
:104338000346002B01D000F073F900BF80BD00BF19
:104348004807002080B500AF4FF40010FFF782FD4A
:10435800FFF7A6FA0346002200211846FFF7F6FAEF
:10436800034619460C20FFF7C7FA0C20FFF7A6FAF8
:1043780000BF80BD80B588B000AF07F118030022E8
:104388001A605A603B4600221A605A609A60DA60E6
:104398001A615A610420FFF75DFD8020FFF75AFD7E
:1043A8000120FFF757FD0220FFF754FD0820FFF713
:1043B80051FD4020FFF74EFD01218B48FFF796FE87
:1043C8004FF480418848FFF791FE40218748FFF766
:1043D8008DFE80218448FFF789FE85490220FFF77A
:1043E80069FD4FF40053BB6101233B7700237B77C2
:1043F8000123BB7707F11803184601F007FC0022D8
:104408004FF400517B48FFF734FE00224FF400516F
:104418007848FFF7F1FD02233B6002237B6003230A
:10442800BB600023FB6000233B610B237B613B46A1
:104438001946704800F049FE02233B6002237B6066
:104448000323BB600023FB6000233B610B237B61DC
:104458003B461946684800F038FE04233B600223B7
:104468007B600323BB600023FB6000233B610B23BD
:104478007B613B461946604800F027FE80233B607D
:1044880002237B600323BB600023FB6000233B61A6
:104498000B237B613B461946574800F016FE102354
:1044A8003B6002237B600323BB600023FB60002387
:1044B8003B610B237B613B4619464E4800F005FEE5
:1044C80020233B6002237B600323BB600023FB6047
:1044D80000233B610B237B613B461946454800F0AE
:1044E800F4FD01233B6001237B600023BB600023B4
:1044F800FB6000233B613B4619463B4800F0E5FD65
:104508004FF400533B6002237B600323BB6000230E
:10451800FB6000233B610B237B613B461946324815
:1045280000F0D3FD4FF480433B6001237B60002300
:10453800BB600023FB6000233B613B4619462A48C9
:1045480000F0C3FD40233B6001237B600023BB6078
:104558000023FB6000233B613B461946234800F0DB
:10456800B4FD80233B6000237B6000233B613B4616
:1045780019461E4800F0A9FD4FF400633B60022372
:104588007B600323BB600023FB6000233B610B239C
:104598007B613B461946154800F097FD4FF40053E0
:1045A8003B6002237B600323BB600023FB60002386
:1045B8003B610B237B613B4619460C4800F085FDA7
:1045C80080233B6001237B600023BB600023FB60EA
:1045D80000233B613B461946034800F076FD00BFC7
:1045E8002037BD4680BD00BF0004024000180240CD
:1045F8000300F000000802400000024080B582B0CD
:1046080000AF78607B681B68044A934201D101F0CF
:104618006BFE00BF0837BD4680BD00BF000C0040E0
:1046280080B400AF72B600BF00BFFDE780B400AF32
:1046380000BFFDE780B400AF00BFFDE780B400AF66
:1046480000BFFDE780B400AF00BFFDE780B400AF56
:1046580000BFFDE780B400AF00BFBD465DF8047B36
:10466800704780B400AF00BFBD465DF8047B70475B
:1046780080B400AF00BFBD465DF8047B7047000002
:1046880080B500AF024800F0CFF900BF80BD00BF81
:104698004C0B002080B483B000AF7860074BD3F890
:1046A800903023F0006205497B681343C1F89030CD
:1046B80000BF0C37BD465DF8047B704700380240E8
:1046C80080B483B000AF0F4B1B6C0E4A43F080538D
:1046D80013640C4B1B6C03F080537B607B68094BA5
:1046E8005B6C084A43F480435364064B5B6C03F4E9
:1046F80080433B603B6800BF0C37BD465DF8047BD8
:10470800704700BF0038024080B58AB000AF7860BB
:1047180007F1140300221A605A609A60DA601A617D
:104728007B681B68B3F1A04F44D10020FFF7B2FFAC
:10473800224B1B6B214A43F0010313631F4B1B6B76
:1047480003F001033B613B694FF4E8537B610223AB
:10475800BB610023FB6103233B620A237B6207F1F1
:1047680014031946164801F023FB4FF400737B61CC
:104778000023BB610023FB6107F1140319461048AD
:1047880001F016FB0D4B5B6B0C4A43F0800353633F
:104798000A4B5B6B03F08003FB60FB68074B5B6CA9
:1047A800064A43F480435364044B5B6C03F4804330
:1047B800BB60BB6800BF2837BD4680BD00380240DB
:1047C8000000024080B58CB000AF78600023FB6227
:1047D8000023BB6200227968322001F04DFD3220AF
:1047E80001F066FD1F4B1B6C1E4A43F0080313645F
:1047F8001C4B1B6C03F00803FB60FB6807F11002FD
:1048080007F114031146184601F0A0FA01F08AFADC
:1048180003465B00FB62FB6A134AA2FB03239B0C63
:10482800013BBB62114B124A1A60104B40F2E7324F
:10483800DA600E4ABB6A53600C4B00221A610B4BBC
:1048480000229A60094800F015F80346002B04D1AD
:10485800064800F071F8034600E001231846303797
:10486800BD4680BD0038024083DE1B434C0B002050
:10487800000C004080B582B000AF78607B68002BE8
:1048880001D1012349E07B6893F83D30DBB2002B6E
:1048980006D17B68002283F83C20786800F041F854
:1048A8007B68022283F83D207B681A687B680433A2
:1048B8001946104600F000FA7B68012283F8482068
:1048C8007B68012283F83E207B68012283F83F2021
:1048D8007B68012283F840207B68012283F841200D
:1048E8007B68012283F842207B68012283F84320F9
:1048F8007B68012283F844207B68012283F84520E5
:104908007B68012283F846207B68012283F84720D0
:104918007B68012283F83D20002318460837BD46EE
:1049280080BD80B483B000AF786000BF0C37BD464F
:104938005DF8047B7047000080B485B000AF7860F4
:104948007B6893F83D30DBB2012B01D0012354E0A2
:104958007B68022283F83D207B681B68DA687B68E5
:104968001B6842F00102DA607B681B68264A9342A2
:1049780022D07B681B68B3F1804F1DD07B681B6811
:10498800224A934218D07B681B68214A934213D06D
:104998007B681B681F4A93420ED07B681B681E4ABF
:1049A800934209D07B681B681C4A934204D07B68F9
:1049B8001B681B4A934215D17B681B689A68194B80
:1049C8001340FB60FB68062B15D0FB68B3F5803FEE
:1049D80011D07B681B681A687B681B6842F001026B
:1049E8001A6008E07B681B681A687B681B6842F0DD
:1049F80001021A6000E000BF002318461437BD46C4
:104A08005DF8047B704700BF0000014000040040CF
:104A180000080040000C0040000401400040014034
:104A2800001800400700010080B582B000AF786030
:104A38007B681B681B6903F00203022B22D17B6889
:104A48001B68DB6803F00203022B1BD17B681B6821
:104A58006FF002021A617B6801221A777B681B6873
:104A68009B6903F00303002B03D0786800F005F975
:104A780005E0786800F0F7F8786800F008F97B68D6
:104A880000221A777B681B681B6903F00403042B58
:104A980022D17B681B68DB6803F00403042B1BD15D
:104AA8007B681B686FF004021A617B6802221A7720
:104AB8007B681B689B6903F44073002B03D07868FC
:104AC80000F0DBF805E0786800F0CDF8786800F0D1
:104AD800DEF87B6800221A777B681B681B6903F085
:104AE8000803082B22D17B681B68DB6803F00803E6
:104AF800082B1BD17B681B686FF008021A617B6862
:104B080004221A777B681B68DB6903F00303002B18
:104B180003D0786800F0B1F805E0786800F0A3F8F1
:104B2800786800F0B4F87B6800221A777B681B6805
:104B38001B6903F01003102B22D17B681B68DB680C
:104B480003F01003102B1BD17B681B686FF0100259
:104B58001A617B6808221A777B681B68DB6903F493
:104B68004073002B03D0786800F087F805E0786878
:104B780000F079F8786800F08AF87B6800221A77E4
:104B88007B681B681B6903F00103012B0ED17B684E
:104B98001B68DB6803F00103012B07D17B681B68E6
:104BA8006FF001021A617868FFF728FD7B681B68BF
:104BB8001B6903F08003802B0ED17B681B68DB68C0
:104BC80003F08003802B07D17B681B686FF080029D
:104BD8001A61786800F01AF97B681B681B6903F48E
:104BE8008073B3F5807F0ED17B681B68DB6803F0A8
:104BF8008003802B07D17B681B686FF480721A6171
:104C0800786800F00DF97B681B681B6903F04003A6
:104C1800402B0ED17B681B68DB6803F04003402BF8
:104C280007D17B681B686FF040021A61786800F052
:104C380038F87B681B681B6903F02003202B0ED112
:104C48007B681B68DB6803F02003202B07D17B6897
:104C58001B686FF020021A61786800F0CDF800BF79
:104C68000837BD4680BD80B483B000AF786000BF10
:104C78000C37BD465DF8047B704780B483B000AF45
:104C8800786000BF0C37BD465DF8047B704780B480
:104C980083B000AF786000BF0C37BD465DF8047B79
:104CA800704780B483B000AF786000BF0C37BD4652
:104CB8005DF8047B7047000080B485B000AF786071
:104CC80039607B681B68FB607B68404A934213D05D
:104CD8007B68B3F1804F0FD07B683D4A93420BD07D
:104CE8007B683C4A934207D07B683B4A934203D097
:104CF8007B683A4A934208D1FB6823F07003FB6053
:104D08003B685B68FA681343FB607B682F4A9342F1
:104D18002BD07B68B3F1804F27D07B682C4A934215
:104D280023D07B682B4A93421FD07B682A4A934240
:104D38001BD07B68294A934217D07B68284A934244
:104D480013D07B68274A93420FD07B68264A934248
:104D58000BD07B68254A934207D07B68244A93424C
:104D680003D07B68234A934208D1FB6823F440733D
:104D7800FB603B68DB68FA681343FB60FB6823F061
:104D880080023B685B691343FB607B68FA681A60C2
:104D98003B689A687B68DA623B681A687B689A6243
:104DA8007B680A4A934203D07B680C4A934203D13A
:104DB8003B681A697B681A637B6801225A6100BFE5
:104DC8001437BD465DF8047B704700BF0000014002
:104DD8000004004000080040000C004000040140AE
:104DE80000400140004401400048014000180040D4
:104DF800001C00400020004080B483B000AF786001
:104E080000BF0C37BD465DF8047B704780B483B0A3
:104E180000AF786000BF0C37BD465DF8047B704773
:104E280080B483B000AF786000BF0C37BD465DF832
:104E3800047B704780B48BB000AFF860B9607A60CB
:104E4800FB681A68BB687B617B6993FAA3F33B61D3
:104E58003B69BB61BB69002B01D1202303E0BB691F
:104E6800B3FA83F3DBB25B00032101FA03F3DB43FC
:104E78001A40BB683B623B6A93FAA3F3FB61FB6988
:104E88007B627B6A002B01D1202303E07B6AB3FAA3
:104E980083F3DBB25B00796801FA03F31A43FB681A
:104EA8001A6000BF2C37BD465DF8047B704780B49C
:104EB80085B000AFF860B9607A60FB685A68BB6873
:104EC800DB431A40BB68796801FB03F31A43FB68AC
:104ED8005A6000BF1437BD465DF8047B704780B444
:104EE8008BB000AFF860B9607A60FB689A68BB68FD
:104EF8007B617B6993FAA3F33B613B69BB61BB6947
:104F0800002B01D1202303E0BB69B3FA83F3DBB2A2
:104F18005B00032101FA03F3DB431A40BB683B62E1
:104F28003B6A93FAA3F3FB61FB697B627B6A002B04
:104F380001D1202303E07B6AB3FA83F3DBB25B0081
:104F4800796801FA03F31A43FB689A6000BF2C37AB
:104F5800BD465DF8047B704780B48BB000AFF86045
:104F6800B9607A60FB68DA68BB687B617B6993FA31
:104F7800A3F33B613B69BB61BB69002B01D12023D3
:104F880003E0BB69B3FA83F3DBB25B00032101FAE8
:104F980003F3DB431A40BB683B623B6A93FAA3F313
:104FA800FB61FB697B627B6A002B01D1202303E054
:104FB8007B6AB3FA83F3DBB25B00796801FA03F327
:104FC8001A43FB68DA6000BF2C37BD465DF8047BE6
:104FD800704780B48BB000AFF860B9607A60FB6846
:104FE8001A6ABB687B617B6993FAA3F33B613B69EF
:104FF800BB61BB69002B01D1202303E0BB69B3FA75
:1050080083F3DBB29B000F2101FA03F3DB431A4061
:10501800BB683B623B6A93FAA3F3FB61FB697B6263
:105028007B6A002B01D1202303E07B6AB3FA83F368
:10503800DBB29B00796801FA03F31A43FB681A6232
:1050480000BF2C37BD465DF8047B704780B48BB039
:1050580000AFF860B9607A60FB685A6ABB681B0ADF
:105068007B617B6993FAA3F33B613B69BB61BB69D5
:10507800002B01D1202303E0BB69B3FA83F3DBB231
:105088009B000F2101FA03F3DB431A40BB681B0A9C
:105098003B623B6A93FAA3F3FB61FB697B627B6A21
:1050A800002B01D1202303E07B6AB3FA83F3DBB240
:1050B8009B00796801FA03F31A43FB685A6200BF40
:1050C8002C37BD465DF8047B704780B58AB000AFC9
:1050D8007860396000237B6200233B623B681B6871
:1050E800BB61BB6993FAA3F37B617B69FB61FB69D5
:1050F800002B01D1202303E0FB69B3FA83F3DBB271
:105108007B6258E03B681A6801217B6A01FA03F365
:1051180013403B623B6A002B4AD03B685B68012B1B
:1051280003D03B685B68022B0ED13B689B681A462C
:10513800396A7868FFF7D3FE3B6819683B68DB6813
:105148001A467868FFF7B3FE3B681B691A46396A46
:105158007868FFF701FF3B685B68022B21D13B6A47
:10516800FB60FB6893FAA3F3BB60BB683B613B69D8
:10517800002B01D1202303E03B69B3FA83F3DBB2B0
:10518800072B07D83B685B691A46396A7868FFF7C6
:1051980020FF06E03B685B691A46396A7868FFF7C2
:1051A80055FF3B685B681A46396A7868FFF742FE24
:1051B8007B6A01337B623B681A687B6A22FA03F3D5
:1051C800002B9FD1002318462837BD4680BD80B4E8
:1051D80083B000AF78607B681B6803F00103012B84
:1051E80001D1012300E0002318460C37BD465DF8C5
:1051F800047B704780B483B000AF786039607B6807
:105208005B6823F440523B681A437B685A6000BFCE
:105218000C37BD465DF8047B704780B483B000AF9F
:10522800786039607B689B6823F440723B681A4356
:105238007B689A6000BF0C37BD465DF8047B7047F9
:1052480080B487B000AFF860B9607A603B607B6873
:10525800B3F5004F1AD1BB685A003B685B081A4483
:105268003B68B2FBF3F39BB27B617A694FF6F0734C
:1052780013403B617B695B089BB203F007033A6903
:1052880013433B61FB683A69DA600AE03B685A08F5
:10529800BB681A443B68B2FBF3F39BB21A46FB683F
:1052A800DA6000BF1C37BD465DF8047B704700001C
:1052B80080B584B000AF786039600123FB730023A8
:1052C800BB607868FFF783FF0346002B79D17B68C2
:1052D8001A683E4B13403A6851683A68D2681143DD
:1052E8003A68126911433A6892690A431A437B681B
:1052F8001A603B689B6819467868FFF77BFF3B6834
:105308005B6919467868FFF788FF7B68304A9342E3
:1053180004D1032000F028F9B86041E07B682D4AE9
:10532800934204D10C2000F01FF9B86038E07B6884
:10533800294A934204D1302000F016F9B8602FE0D2
:105348007B68264A934204D1C02000F013FAB86063
:1053580026E07B68224A934205D14FF4407000F062
:1053680009FAB8601CE07B681E4A934205D14FF4E5
:10537800406000F0F9F8B86012E07B681A4A93427E
:1053880005D14FF4405000F0F5F9B86008E07B68AB
:10539800164A934204D14FF4404000F0EBF9B8604C
:1053A800BB68002B0DD03B681B68002B09D000237D
:1053B800FB733B689A693B681B68B9687868FFF7B4
:1053C8003FFFFB7B18461037BD4680BDF369FFEFF2
:1053D800001001400044004000480040004C0040DC
:1053E800005000400014014000780040007C00405C
:1053F80080B400AF064B1B6803F00203022B0CBFFE
:1054080001230023DBB21846BD465DF8047B7047D4
:105418000038024080B400AF064B1B6F03F0020354
:10542800022B0CBF01230023DBB21846BD465DF8F2
:10543800047B70470038024080B400AF044B9B687F
:1054480003F00C031846BD465DF8047B704700BFA7
:105458000038024080B400AF044B9B6803F0F003AF
:105468001846BD465DF8047B704700BF003802400F
:1054780080B400AF044B9B6803F4E0531846BD4664
:105488005DF8047B704700BF0038024080B400AF6D
:10549800044B9B6803F460431846BD465DF8047BE3
:1054A800704700BF0038024080B483B000AF786016
:1054B800064BD3F890207B681A407B681B04134383
:1054C80018460C37BD465DF8047B7047003802402B
:1054D80080B483B000AF7860064BD3F890207B6827
:1054E8001A407B681B04134318460C37BD465DF809
:1054F800047B70470038024080B400AF044B5B68FF
:1055080003F480031846BD465DF8047B704700BF6E
:105518000038024080B400AF044B5B689B09C3F3BA
:1055280008031846BD465DF8047B70470038024002
:1055380080B400AF044B5B6803F440331846BD46A3
:105548005DF8047B704700BF0038024080B400AFAC
:10555800044B5B6803F03F031846BD465DF8047BC7
:10556800704700BF0038024080B584B000AF786053
:105578000023FB607B68032B33D17868FFF794FF27
:105588000346B3F1031F16D0B3F1031F1DD8704AA9
:10559800934203D06F4A934204D016E000F0F2F928
:1055A800F860CFE0FFF724FF0346002B00F0BB8034
:1055B800694BFB60B7E0FFF72DFF0346002B00F0B7
:1055C800B4804FF40043FB60AFE000F0DBF9034622
:1055D800184600F0FFF90346184600F025FAF8606F
:1055E800B0E07B680C2B33D17868FFF75DFF03468A
:1055F800B3F10C1F16D0B3F10C1F1DD8574A9342B4
:1056080003D0574A934204D016E000F0BBF9F86083
:1056180098E0FFF7EDFE0346002B00F088804E4B24
:10562800FB6084E0FFF7F6FE0346002B00F0818064
:105638004FF40043FB607CE000F0A4F903461846F1
:1056480000F0C8F90346184600F0DAF9F86079E086
:105658007B68B3F5406F31D17868FFF725FF0346C3
:10566800B3F10C2F15D0B3F10C2F1BD83D4A934240
:1056780003D03D4A934204D014E000F083F9F86067
:1056880060E0FFF7B5FE0346002B54D0324BFB60B9
:1056980051E0FFF7BFFE0346002B4ED04FF4004306
:1056A800FB604AE000F06EF90346184600F092F9F4
:1056B8000346184600F0B8F9F86043E07B68302BE1
:1056C80040D17868FFF7F0FE0346B3F1301F15D0DC
:1056D800B3F1301F1BD8254A934203D0244A934282
:1056E80004D014E000F04EF9F8602BE0FFF780FEDC
:1056F8000346002B23D0184BFB6020E0FFF78AFEFF
:105708000346002B1DD04FF40043FB6019E000F066
:1057180039F90346184600F05DF90346184600F0CB
:105728006FF9F8600EE000BF0CE000BF0AE000BFB0
:1057380008E000BF06E000BF04E000BF02E000BFD1
:1057480000E000BFFB6818461037BD4680BD00BFAB
:1057580001000300020003000024F40004000C0010
:1057680008000C000004000C0008000C10003000B9
:105778002000300080B584B000AF78600023FB6063
:105788007B68C02B33D17868FFF7A2FE0346B3F1DC
:10579800C01F16D0B3F1C01F1DD8714A934203D061
:1057A800704A934204D016E000F0ECF8F860D1E0BB
:1057B800FFF71EFE0346002B00F0BD806A4BFB601E
:1057C800B9E0FFF727FE0346002B00F0B6804FF440
:1057D8000043FB60B1E000F0D5F80346184600F03E
:1057E800F9F80346184600F00BF9F860B2E07B6858
:1057F800B3F5407F33D17868FFF76AFE0346B3F10B
:10580800032F16D0B3F1032F1DD8584A934203D063
:10581800574A934204D016E000F0B4F8F86099E0D3
:10582800FFF7E6FD0346002B00F089804E4BFB6036
:1058380085E0FFF7EFFD0346002B00F082804FF470
:105848000043FB607DE000F09DF80346184600F039
:10585800C1F80346184600F0D3F8F8607AE07B6890
:10586800B3F5405F31D17868FFF732FE0346B3F1F4
:10587800302F15D0B3F1302F1BD83E4A934203D0B6
:105888003D4A934204D014E000F07CF8F86061E0EF
:10589800FFF7AEFD0346002B55D0334BFB6052E0BB
:1058A800FFF7B8FD0346002B4FD04FF40043FB60D1
:1058B8004BE000F067F80346184600F08BF8034603
:1058C800184600F09DF8F86044E07B68B3F5404F57
:1058D80040D17868FFF7FCFD0346B3F1C02F15D01F
:1058E800B3F1C02F1BD8254A934203D0244A9342D0
:1058F80004D014E000F046F8F8602BE0FFF778FDDC
:105908000346002B23D0184BFB6020E0FFF782FDF5
:105918000346002B1DD04FF40043FB6019E000F054
:1059280031F80346184600F055F80346184600F0CB
:1059380067F8F8600EE000BF0CE000BF0AE000BFA7
:1059480008E000BF06E000BF04E000BF02E000BFBF
:1059580000E000BFFB6818461037BD4680BD00BF99
:105968004000C0008000C0000024F40000010003D3
:10597800000200030010003000200030004000C08A
:10598800008000C080B582B000AF00237B60FFF7C5
:1059980053FD0346082B0CD0082B0ED8002B02D041
:1059A800042B03D009E0094B7B6009E0084B7B60BE
:1059B80006E000F04DF8786002E0044B7B6000BF21
:1059C8007B6818460837BD4680BD00BF0024F40038
:1059D80000127A0080B582B000AF7860FFF73AFD18
:1059E80003461B0903F00F03044AD35C1A467B687D
:1059F800D34018460837BD4680BD00BF748A0008EA
:105A080080B582B000AF7860FFF732FD03469B0A8D
:105A1800044AD35C1A467B68D34018460837BD460B
:105A280080BD00BF848A000880B582B000AF78606E
:105A3800FFF72CFD03465B0B044AD35C1A467B68D0
:105A4800D34018460837BD4680BD00BF848A000889
:105A580090B583B000AF00237B6000233B60FFF765
:105A68004BFD38603B68002B04D03B68B3F5800FD2
:105A780003D005E00F4B7B6005E00F4B7B6002E035
:105A88000C4B7B6000BFFFF761FD02467B68B3FBF0
:105A9800F2F4FFF73FFD034603FB04F4FFF748FD6C
:105AA80003461B0C01335B00B4FBF3F318460C37B9
:105AB800BD4690BD0024F40000127A0080B483B083
:105AC80000AF7860044A7B68136000BF0C37BD469E
